{
	"contracts/RoyaltySharing.sol": {
		"Profit_sharing": {
			"abi": [
				{
					"inputs": [],
					"stateMutability": "payable",
					"type": "constructor"
				},
				{
					"inputs": [],
					"name": "composer_share",
					"outputs": [
						{
							"internalType": "uint256",
							"name": "",
							"type": "uint256"
						}
					],
					"stateMutability": "view",
					"type": "function"
				},
				{
					"inputs": [],
					"name": "income_distribute",
					"outputs": [],
					"stateMutability": "nonpayable",
					"type": "function"
				},
				{
					"inputs": [],
					"name": "payEther",
					"outputs": [],
					"stateMutability": "payable",
					"type": "function"
				},
				{
					"inputs": [
						{
							"internalType": "uint256",
							"name": "a_view",
							"type": "uint256"
						},
						{
							"internalType": "uint256",
							"name": "like",
							"type": "uint256"
						},
						{
							"internalType": "uint256",
							"name": "dislike",
							"type": "uint256"
						}
					],
					"name": "profit",
					"outputs": [
						{
							"internalType": "uint256",
							"name": "",
							"type": "uint256"
						}
					],
					"stateMutability": "nonpayable",
					"type": "function"
				},
				{
					"inputs": [],
					"name": "send_income",
					"outputs": [],
					"stateMutability": "payable",
					"type": "function"
				},
				{
					"inputs": [],
					"name": "singer_share",
					"outputs": [
						{
							"internalType": "uint256",
							"name": "",
							"type": "uint256"
						}
					],
					"stateMutability": "view",
					"type": "function"
				},
				{
					"inputs": [],
					"name": "total_profit",
					"outputs": [
						{
							"internalType": "uint256",
							"name": "",
							"type": "uint256"
						}
					],
					"stateMutability": "view",
					"type": "function"
				},
				{
					"inputs": [],
					"name": "video_editor_share",
					"outputs": [
						{
							"internalType": "uint256",
							"name": "",
							"type": "uint256"
						}
					],
					"stateMutability": "view",
					"type": "function"
				},
				{
					"inputs": [],
					"name": "writer_share",
					"outputs": [
						{
							"internalType": "uint256",
							"name": "",
							"type": "uint256"
						}
					],
					"stateMutability": "view",
					"type": "function"
				}
			],
			"devdoc": {
				"kind": "dev",
				"methods": {},
				"version": 1
			},
			"evm": {
				"assembly": "    /* \"contracts/RoyaltySharing.sol\":62:1459  contract Profit_sharing {\r... */\n  mstore(0x40, 0x80)\n    /* \"contracts/RoyaltySharing.sol\":160:202  0xAb8483F64d9C6d1EcF9b849Ae677dD3315835cb2 */\n  0xab8483f64d9c6d1ecf9b849ae677dd3315835cb2\n    /* \"contracts/RoyaltySharing.sol\":127:203  address payable composer=payable(0xAb8483F64d9C6d1EcF9b849Ae677dD3315835cb2) */\n  0x01\n  exp(0x0100, 0x00)\n  dup2\n  sload\n  dup2\n  0xffffffffffffffffffffffffffffffffffffffff\n  mul\n  not\n  and\n  swap1\n  dup4\n  0xffffffffffffffffffffffffffffffffffffffff\n  and\n  mul\n  or\n  swap1\n  sstore\n  pop\n    /* \"contracts/RoyaltySharing.sol\":241:283  0x4B20993Bc481177ec7E8f571ceCaE8A9e22C02db */\n  0x4b20993bc481177ec7e8f571cecae8a9e22c02db\n    /* \"contracts/RoyaltySharing.sol\":210:284  address payable writer=payable(0x4B20993Bc481177ec7E8f571ceCaE8A9e22C02db) */\n  0x02\n  exp(0x0100, 0x00)\n  dup2\n  sload\n  dup2\n  0xffffffffffffffffffffffffffffffffffffffff\n  mul\n  not\n  and\n  swap1\n  dup4\n  0xffffffffffffffffffffffffffffffffffffffff\n  and\n  mul\n  or\n  swap1\n  sstore\n  pop\n    /* \"contracts/RoyaltySharing.sol\":322:364  0x78731D3Ca6b7E34aC0F824c42a7cC18A495cabaB */\n  0x78731d3ca6b7e34ac0f824c42a7cc18a495cabab\n    /* \"contracts/RoyaltySharing.sol\":291:365  address payable singer=payable(0x78731D3Ca6b7E34aC0F824c42a7cC18A495cabaB) */\n  0x03\n  exp(0x0100, 0x00)\n  dup2\n  sload\n  dup2\n  0xffffffffffffffffffffffffffffffffffffffff\n  mul\n  not\n  and\n  swap1\n  dup4\n  0xffffffffffffffffffffffffffffffffffffffff\n  and\n  mul\n  or\n  swap1\n  sstore\n  pop\n    /* \"contracts/RoyaltySharing.sol\":409:451  0x617F2E2fD72FD9D5503197092aC168c91465E7f2 */\n  0x617f2e2fd72fd9d5503197092ac168c91465e7f2\n    /* \"contracts/RoyaltySharing.sol\":372:452  address payable video_editor=payable(0x617F2E2fD72FD9D5503197092aC168c91465E7f2) */\n  0x04\n  exp(0x0100, 0x00)\n  dup2\n  sload\n  dup2\n  0xffffffffffffffffffffffffffffffffffffffff\n  mul\n  not\n  and\n  swap1\n  dup4\n  0xffffffffffffffffffffffffffffffffffffffff\n  and\n  mul\n  or\n  swap1\n  sstore\n  pop\n    /* \"contracts/RoyaltySharing.sol\":62:1459  contract Profit_sharing {\r... */\n  dataSize(sub_0)\n  dup1\n  dataOffset(sub_0)\n  0x00\n  codecopy\n  0x00\n  return\nstop\n\nsub_0: assembly {\n        /* \"contracts/RoyaltySharing.sol\":62:1459  contract Profit_sharing {\r... */\n      mstore(0x40, 0x80)\n      jumpi(tag_1, lt(calldatasize, 0x04))\n      shr(0xe0, calldataload(0x00))\n      dup1\n      0xbbdf67ad\n      gt\n      tag_11\n      jumpi\n      dup1\n      0xbbdf67ad\n      eq\n      tag_6\n      jumpi\n      dup1\n      0xbfc49eb6\n      eq\n      tag_7\n      jumpi\n      dup1\n      0xcfd692a6\n      eq\n      tag_8\n      jumpi\n      dup1\n      0xefb87560\n      eq\n      tag_9\n      jumpi\n      dup1\n      0xf7474d00\n      eq\n      tag_10\n      jumpi\n      jump(tag_1)\n    tag_11:\n      dup1\n      0x127d7920\n      eq\n      tag_2\n      jumpi\n      dup1\n      0x8cb97317\n      eq\n      tag_3\n      jumpi\n      dup1\n      0x93af640a\n      eq\n      tag_4\n      jumpi\n      dup1\n      0x96ff521e\n      eq\n      tag_5\n      jumpi\n    tag_1:\n      0x00\n      dup1\n      revert\n        /* \"contracts/RoyaltySharing.sol\":560:584  uint public singer_share */\n    tag_2:\n      callvalue\n      dup1\n      iszero\n      tag_12\n      jumpi\n      0x00\n      dup1\n      revert\n    tag_12:\n      pop\n      tag_13\n      tag_14\n      jump\t// in\n    tag_13:\n      mload(0x40)\n      tag_15\n      swap2\n      swap1\n      tag_16\n      jump\t// in\n    tag_15:\n      mload(0x40)\n      dup1\n      swap2\n      sub\n      swap1\n      return\n        /* \"contracts/RoyaltySharing.sol\":989:1165  function profit(uint a_view,uint like,uint dislike) public returns(uint)\r... */\n    tag_3:\n      callvalue\n      dup1\n      iszero\n      tag_17\n      jumpi\n      0x00\n      dup1\n      revert\n    tag_17:\n      pop\n      tag_18\n      0x04\n      dup1\n      calldatasize\n      sub\n      dup2\n      add\n      swap1\n      tag_19\n      swap2\n      swap1\n      tag_20\n      jump\t// in\n    tag_19:\n      tag_21\n      jump\t// in\n    tag_18:\n      mload(0x40)\n      tag_22\n      swap2\n      swap1\n      tag_16\n      jump\t// in\n    tag_22:\n      mload(0x40)\n      dup1\n      swap2\n      sub\n      swap1\n      return\n        /* \"contracts/RoyaltySharing.sol\":529:553  uint public writer_share */\n    tag_4:\n      callvalue\n      dup1\n      iszero\n      tag_23\n      jumpi\n      0x00\n      dup1\n      revert\n    tag_23:\n      pop\n      tag_24\n      tag_25\n      jump\t// in\n    tag_24:\n      mload(0x40)\n      tag_26\n      swap2\n      swap1\n      tag_16\n      jump\t// in\n    tag_26:\n      mload(0x40)\n      dup1\n      swap2\n      sub\n      swap1\n      return\n        /* \"contracts/RoyaltySharing.sol\":591:621  uint public video_editor_share */\n    tag_5:\n      callvalue\n      dup1\n      iszero\n      tag_27\n      jumpi\n      0x00\n      dup1\n      revert\n    tag_27:\n      pop\n      tag_28\n      tag_29\n      jump\t// in\n    tag_28:\n      mload(0x40)\n      tag_30\n      swap2\n      swap1\n      tag_16\n      jump\t// in\n    tag_30:\n      mload(0x40)\n      dup1\n      swap2\n      sub\n      swap1\n      return\n        /* \"contracts/RoyaltySharing.sol\":496:522  uint public composer_share */\n    tag_6:\n      callvalue\n      dup1\n      iszero\n      tag_31\n      jumpi\n      0x00\n      dup1\n      revert\n    tag_31:\n      pop\n      tag_32\n      tag_33\n      jump\t// in\n    tag_32:\n      mload(0x40)\n      tag_34\n      swap2\n      swap1\n      tag_16\n      jump\t// in\n    tag_34:\n      mload(0x40)\n      dup1\n      swap2\n      sub\n      swap1\n      return\n        /* \"contracts/RoyaltySharing.sol\":1183:1447  function send_income() public payable\r... */\n    tag_7:\n      tag_35\n      tag_36\n      jump\t// in\n    tag_35:\n      stop\n        /* \"contracts/RoyaltySharing.sol\":465:489  uint public total_profit */\n    tag_8:\n      callvalue\n      dup1\n      iszero\n      tag_37\n      jumpi\n      0x00\n      dup1\n      revert\n    tag_37:\n      pop\n      tag_38\n      tag_39\n      jump\t// in\n    tag_38:\n      mload(0x40)\n      tag_40\n      swap2\n      swap1\n      tag_16\n      jump\t// in\n    tag_40:\n      mload(0x40)\n      dup1\n      swap2\n      sub\n      swap1\n      return\n        /* \"contracts/RoyaltySharing.sol\":683:929  function income_distribute()  public \r... */\n    tag_9:\n      callvalue\n      dup1\n      iszero\n      tag_41\n      jumpi\n      0x00\n      dup1\n      revert\n    tag_41:\n      pop\n      tag_42\n      tag_43\n      jump\t// in\n    tag_42:\n      stop\n        /* \"contracts/RoyaltySharing.sol\":630:667  function payEther () public payable{} */\n    tag_10:\n      tag_44\n      tag_45\n      jump\t// in\n    tag_44:\n      stop\n        /* \"contracts/RoyaltySharing.sol\":560:584  uint public singer_share */\n    tag_14:\n      sload(0x08)\n      dup2\n      jump\t// out\n        /* \"contracts/RoyaltySharing.sol\":989:1165  function profit(uint a_view,uint like,uint dislike) public returns(uint)\r... */\n    tag_21:\n        /* \"contracts/RoyaltySharing.sol\":1056:1060  uint */\n      0x00\n        /* \"contracts/RoyaltySharing.sol\":1123:1124  2 */\n      0x02\n        /* \"contracts/RoyaltySharing.sol\":1115:1122  dislike */\n      dup3\n        /* \"contracts/RoyaltySharing.sol\":1115:1124  dislike/2 */\n      tag_47\n      swap2\n      swap1\n      tag_48\n      jump\t// in\n    tag_47:\n        /* \"contracts/RoyaltySharing.sol\":1111:1112  5 */\n      0x05\n        /* \"contracts/RoyaltySharing.sol\":1106:1110  like */\n      dup5\n        /* \"contracts/RoyaltySharing.sol\":1106:1112  like*5 */\n      tag_49\n      swap2\n      swap1\n      tag_50\n      jump\t// in\n    tag_49:\n        /* \"contracts/RoyaltySharing.sol\":1101:1103  10 */\n      0x0a\n        /* \"contracts/RoyaltySharing.sol\":1094:1100  a_view */\n      dup7\n        /* \"contracts/RoyaltySharing.sol\":1094:1103  a_view*10 */\n      tag_51\n      swap2\n      swap1\n      tag_50\n      jump\t// in\n    tag_51:\n        /* \"contracts/RoyaltySharing.sol\":1093:1113  (a_view*10)+(like*5) */\n      tag_52\n      swap2\n      swap1\n      tag_53\n      jump\t// in\n    tag_52:\n        /* \"contracts/RoyaltySharing.sol\":1093:1125  (a_view*10)+(like*5)+(dislike/2) */\n      tag_54\n      swap2\n      swap1\n      tag_53\n      jump\t// in\n    tag_54:\n        /* \"contracts/RoyaltySharing.sol\":1079:1091  total_profit */\n      0x05\n        /* \"contracts/RoyaltySharing.sol\":1079:1126  total_profit=((a_view*10)+(like*5)+(dislike/2)) */\n      dup2\n      swap1\n      sstore\n      pop\n        /* \"contracts/RoyaltySharing.sol\":1145:1157  total_profit */\n      sload(0x05)\n        /* \"contracts/RoyaltySharing.sol\":1138:1157  return total_profit */\n      swap1\n      pop\n        /* \"contracts/RoyaltySharing.sol\":989:1165  function profit(uint a_view,uint like,uint dislike) public returns(uint)\r... */\n      swap4\n      swap3\n      pop\n      pop\n      pop\n      jump\t// out\n        /* \"contracts/RoyaltySharing.sol\":529:553  uint public writer_share */\n    tag_25:\n      sload(0x07)\n      dup2\n      jump\t// out\n        /* \"contracts/RoyaltySharing.sol\":591:621  uint public video_editor_share */\n    tag_29:\n      sload(0x09)\n      dup2\n      jump\t// out\n        /* \"contracts/RoyaltySharing.sol\":496:522  uint public composer_share */\n    tag_33:\n      sload(0x06)\n      dup2\n      jump\t// out\n        /* \"contracts/RoyaltySharing.sol\":1183:1447  function send_income() public payable\r... */\n    tag_36:\n        /* \"contracts/RoyaltySharing.sol\":1237:1245  composer */\n      0x01\n      0x00\n      swap1\n      sload\n      swap1\n      0x0100\n      exp\n      swap1\n      div\n      0xffffffffffffffffffffffffffffffffffffffff\n      and\n        /* \"contracts/RoyaltySharing.sol\":1237:1254  composer.transfer */\n      0xffffffffffffffffffffffffffffffffffffffff\n      and\n        /* \"contracts/RoyaltySharing.sol\":1237:1279  composer.transfer(composer_share*(10**18)) */\n      0x08fc\n        /* \"contracts/RoyaltySharing.sol\":1271:1277  10**18 */\n      0x0de0b6b3a7640000\n        /* \"contracts/RoyaltySharing.sol\":1255:1269  composer_share */\n      sload(0x06)\n        /* \"contracts/RoyaltySharing.sol\":1255:1278  composer_share*(10**18) */\n      tag_56\n      swap2\n      swap1\n      tag_50\n      jump\t// in\n    tag_56:\n        /* \"contracts/RoyaltySharing.sol\":1237:1279  composer.transfer(composer_share*(10**18)) */\n      swap1\n      dup2\n      iszero\n      mul\n      swap1\n      mload(0x40)\n      0x00\n      mload(0x40)\n      dup1\n      dup4\n      sub\n      dup2\n      dup6\n      dup9\n      dup9\n      call\n      swap4\n      pop\n      pop\n      pop\n      pop\n      iszero\n      dup1\n      iszero\n      tag_58\n      jumpi\n      returndatasize\n      0x00\n      dup1\n      returndatacopy\n      revert(0x00, returndatasize)\n    tag_58:\n      pop\n        /* \"contracts/RoyaltySharing.sol\":1290:1296  writer */\n      0x02\n      0x00\n      swap1\n      sload\n      swap1\n      0x0100\n      exp\n      swap1\n      div\n      0xffffffffffffffffffffffffffffffffffffffff\n      and\n        /* \"contracts/RoyaltySharing.sol\":1290:1305  writer.transfer */\n      0xffffffffffffffffffffffffffffffffffffffff\n      and\n        /* \"contracts/RoyaltySharing.sol\":1290:1329  writer.transfer(writer_share*(10**18) ) */\n      0x08fc\n        /* \"contracts/RoyaltySharing.sol\":1320:1326  10**18 */\n      0x0de0b6b3a7640000\n        /* \"contracts/RoyaltySharing.sol\":1306:1318  writer_share */\n      sload(0x07)\n        /* \"contracts/RoyaltySharing.sol\":1306:1327  writer_share*(10**18) */\n      tag_59\n      swap2\n      swap1\n      tag_50\n      jump\t// in\n    tag_59:\n        /* \"contracts/RoyaltySharing.sol\":1290:1329  writer.transfer(writer_share*(10**18) ) */\n      swap1\n      dup2\n      iszero\n      mul\n      swap1\n      mload(0x40)\n      0x00\n      mload(0x40)\n      dup1\n      dup4\n      sub\n      dup2\n      dup6\n      dup9\n      dup9\n      call\n      swap4\n      pop\n      pop\n      pop\n      pop\n      iszero\n      dup1\n      iszero\n      tag_61\n      jumpi\n      returndatasize\n      0x00\n      dup1\n      returndatacopy\n      revert(0x00, returndatasize)\n    tag_61:\n      pop\n        /* \"contracts/RoyaltySharing.sol\":1340:1346  singer */\n      0x03\n      0x00\n      swap1\n      sload\n      swap1\n      0x0100\n      exp\n      swap1\n      div\n      0xffffffffffffffffffffffffffffffffffffffff\n      and\n        /* \"contracts/RoyaltySharing.sol\":1340:1355  singer.transfer */\n      0xffffffffffffffffffffffffffffffffffffffff\n      and\n        /* \"contracts/RoyaltySharing.sol\":1340:1378  singer.transfer(singer_share*(10**18)) */\n      0x08fc\n        /* \"contracts/RoyaltySharing.sol\":1370:1376  10**18 */\n      0x0de0b6b3a7640000\n        /* \"contracts/RoyaltySharing.sol\":1356:1368  singer_share */\n      sload(0x08)\n        /* \"contracts/RoyaltySharing.sol\":1356:1377  singer_share*(10**18) */\n      tag_62\n      swap2\n      swap1\n      tag_50\n      jump\t// in\n    tag_62:\n        /* \"contracts/RoyaltySharing.sol\":1340:1378  singer.transfer(singer_share*(10**18)) */\n      swap1\n      dup2\n      iszero\n      mul\n      swap1\n      mload(0x40)\n      0x00\n      mload(0x40)\n      dup1\n      dup4\n      sub\n      dup2\n      dup6\n      dup9\n      dup9\n      call\n      swap4\n      pop\n      pop\n      pop\n      pop\n      iszero\n      dup1\n      iszero\n      tag_64\n      jumpi\n      returndatasize\n      0x00\n      dup1\n      returndatacopy\n      revert(0x00, returndatasize)\n    tag_64:\n      pop\n        /* \"contracts/RoyaltySharing.sol\":1389:1401  video_editor */\n      0x04\n      0x00\n      swap1\n      sload\n      swap1\n      0x0100\n      exp\n      swap1\n      div\n      0xffffffffffffffffffffffffffffffffffffffff\n      and\n        /* \"contracts/RoyaltySharing.sol\":1389:1410  video_editor.transfer */\n      0xffffffffffffffffffffffffffffffffffffffff\n      and\n        /* \"contracts/RoyaltySharing.sol\":1389:1439  video_editor.transfer(video_editor_share*(10**18)) */\n      0x08fc\n        /* \"contracts/RoyaltySharing.sol\":1431:1437  10**18 */\n      0x0de0b6b3a7640000\n        /* \"contracts/RoyaltySharing.sol\":1411:1429  video_editor_share */\n      sload(0x09)\n        /* \"contracts/RoyaltySharing.sol\":1411:1438  video_editor_share*(10**18) */\n      tag_65\n      swap2\n      swap1\n      tag_50\n      jump\t// in\n    tag_65:\n        /* \"contracts/RoyaltySharing.sol\":1389:1439  video_editor.transfer(video_editor_share*(10**18)) */\n      swap1\n      dup2\n      iszero\n      mul\n      swap1\n      mload(0x40)\n      0x00\n      mload(0x40)\n      dup1\n      dup4\n      sub\n      dup2\n      dup6\n      dup9\n      dup9\n      call\n      swap4\n      pop\n      pop\n      pop\n      pop\n      iszero\n      dup1\n      iszero\n      tag_67\n      jumpi\n      returndatasize\n      0x00\n      dup1\n      returndatacopy\n      revert(0x00, returndatasize)\n    tag_67:\n      pop\n        /* \"contracts/RoyaltySharing.sol\":1183:1447  function send_income() public payable\r... */\n      jump\t// out\n        /* \"contracts/RoyaltySharing.sol\":465:489  uint public total_profit */\n    tag_39:\n      sload(0x05)\n      dup2\n      jump\t// out\n        /* \"contracts/RoyaltySharing.sol\":683:929  function income_distribute()  public \r... */\n    tag_43:\n        /* \"contracts/RoyaltySharing.sol\":769:770  5 */\n      0x05\n        /* \"contracts/RoyaltySharing.sol\":756:768  total_profit */\n      dup1\n      sload\n        /* \"contracts/RoyaltySharing.sol\":756:770  total_profit/5 */\n      tag_69\n      swap2\n      swap1\n      tag_48\n      jump\t// in\n    tag_69:\n        /* \"contracts/RoyaltySharing.sol\":740:754  composer_share */\n      0x06\n        /* \"contracts/RoyaltySharing.sol\":740:771  composer_share=(total_profit/5) */\n      dup2\n      swap1\n      sstore\n      pop\n        /* \"contracts/RoyaltySharing.sol\":825:826  5 */\n      0x05\n        /* \"contracts/RoyaltySharing.sol\":812:824  total_profit */\n      dup1\n      sload\n        /* \"contracts/RoyaltySharing.sol\":812:826  total_profit/5 */\n      tag_70\n      swap2\n      swap1\n      tag_48\n      jump\t// in\n    tag_70:\n        /* \"contracts/RoyaltySharing.sol\":798:810  writer_share */\n      0x07\n        /* \"contracts/RoyaltySharing.sol\":798:827  writer_share=(total_profit/5) */\n      dup2\n      swap1\n      sstore\n      pop\n        /* \"contracts/RoyaltySharing.sol\":874:875  5 */\n      0x05\n        /* \"contracts/RoyaltySharing.sol\":861:873  total_profit */\n      dup1\n      sload\n        /* \"contracts/RoyaltySharing.sol\":861:875  total_profit/5 */\n      tag_71\n      swap2\n      swap1\n      tag_48\n      jump\t// in\n    tag_71:\n        /* \"contracts/RoyaltySharing.sol\":841:859  video_editor_share */\n      0x09\n        /* \"contracts/RoyaltySharing.sol\":841:876  video_editor_share=(total_profit/5) */\n      dup2\n      swap1\n      sstore\n      pop\n        /* \"contracts/RoyaltySharing.sol\":920:921  5 */\n      0x05\n        /* \"contracts/RoyaltySharing.sol\":917:918  2 */\n      0x02\n        /* \"contracts/RoyaltySharing.sol\":904:916  total_profit */\n      sload(0x05)\n        /* \"contracts/RoyaltySharing.sol\":904:918  total_profit*2 */\n      tag_72\n      swap2\n      swap1\n      tag_50\n      jump\t// in\n    tag_72:\n        /* \"contracts/RoyaltySharing.sol\":903:921  (total_profit*2)/5 */\n      tag_73\n      swap2\n      swap1\n      tag_48\n      jump\t// in\n    tag_73:\n        /* \"contracts/RoyaltySharing.sol\":890:902  singer_share */\n      0x08\n        /* \"contracts/RoyaltySharing.sol\":890:921  singer_share=(total_profit*2)/5 */\n      dup2\n      swap1\n      sstore\n      pop\n        /* \"contracts/RoyaltySharing.sol\":683:929  function income_distribute()  public \r... */\n      jump\t// out\n        /* \"contracts/RoyaltySharing.sol\":630:667  function payEther () public payable{} */\n    tag_45:\n      jump\t// out\n        /* \"#utility.yul\":7:146   */\n    tag_76:\n        /* \"#utility.yul\":53:58   */\n      0x00\n        /* \"#utility.yul\":91:97   */\n      dup2\n        /* \"#utility.yul\":78:98   */\n      calldataload\n        /* \"#utility.yul\":69:98   */\n      swap1\n      pop\n        /* \"#utility.yul\":107:140   */\n      tag_78\n        /* \"#utility.yul\":134:139   */\n      dup2\n        /* \"#utility.yul\":107:140   */\n      tag_79\n      jump\t// in\n    tag_78:\n        /* \"#utility.yul\":7:146   */\n      swap3\n      swap2\n      pop\n      pop\n      jump\t// out\n        /* \"#utility.yul\":152:771   */\n    tag_20:\n        /* \"#utility.yul\":229:235   */\n      0x00\n        /* \"#utility.yul\":237:243   */\n      dup1\n        /* \"#utility.yul\":245:251   */\n      0x00\n        /* \"#utility.yul\":294:296   */\n      0x60\n        /* \"#utility.yul\":282:291   */\n      dup5\n        /* \"#utility.yul\":273:280   */\n      dup7\n        /* \"#utility.yul\":269:292   */\n      sub\n        /* \"#utility.yul\":265:297   */\n      slt\n        /* \"#utility.yul\":262:381   */\n      iszero\n      tag_81\n      jumpi\n        /* \"#utility.yul\":300:379   */\n      tag_82\n      tag_83\n      jump\t// in\n    tag_82:\n        /* \"#utility.yul\":262:381   */\n    tag_81:\n        /* \"#utility.yul\":420:421   */\n      0x00\n        /* \"#utility.yul\":445:498   */\n      tag_84\n        /* \"#utility.yul\":490:497   */\n      dup7\n        /* \"#utility.yul\":481:487   */\n      dup3\n        /* \"#utility.yul\":470:479   */\n      dup8\n        /* \"#utility.yul\":466:488   */\n      add\n        /* \"#utility.yul\":445:498   */\n      tag_76\n      jump\t// in\n    tag_84:\n        /* \"#utility.yul\":435:498   */\n      swap4\n      pop\n        /* \"#utility.yul\":391:508   */\n      pop\n        /* \"#utility.yul\":547:549   */\n      0x20\n        /* \"#utility.yul\":573:626   */\n      tag_85\n        /* \"#utility.yul\":618:625   */\n      dup7\n        /* \"#utility.yul\":609:615   */\n      dup3\n        /* \"#utility.yul\":598:607   */\n      dup8\n        /* \"#utility.yul\":594:616   */\n      add\n        /* \"#utility.yul\":573:626   */\n      tag_76\n      jump\t// in\n    tag_85:\n        /* \"#utility.yul\":563:626   */\n      swap3\n      pop\n        /* \"#utility.yul\":518:636   */\n      pop\n        /* \"#utility.yul\":675:677   */\n      0x40\n        /* \"#utility.yul\":701:754   */\n      tag_86\n        /* \"#utility.yul\":746:753   */\n      dup7\n        /* \"#utility.yul\":737:743   */\n      dup3\n        /* \"#utility.yul\":726:735   */\n      dup8\n        /* \"#utility.yul\":722:744   */\n      add\n        /* \"#utility.yul\":701:754   */\n      tag_76\n      jump\t// in\n    tag_86:\n        /* \"#utility.yul\":691:754   */\n      swap2\n      pop\n        /* \"#utility.yul\":646:764   */\n      pop\n        /* \"#utility.yul\":152:771   */\n      swap3\n      pop\n      swap3\n      pop\n      swap3\n      jump\t// out\n        /* \"#utility.yul\":777:895   */\n    tag_87:\n        /* \"#utility.yul\":864:888   */\n      tag_89\n        /* \"#utility.yul\":882:887   */\n      dup2\n        /* \"#utility.yul\":864:888   */\n      tag_90\n      jump\t// in\n    tag_89:\n        /* \"#utility.yul\":859:862   */\n      dup3\n        /* \"#utility.yul\":852:889   */\n      mstore\n        /* \"#utility.yul\":777:895   */\n      pop\n      pop\n      jump\t// out\n        /* \"#utility.yul\":901:1123   */\n    tag_16:\n        /* \"#utility.yul\":994:998   */\n      0x00\n        /* \"#utility.yul\":1032:1034   */\n      0x20\n        /* \"#utility.yul\":1021:1030   */\n      dup3\n        /* \"#utility.yul\":1017:1035   */\n      add\n        /* \"#utility.yul\":1009:1035   */\n      swap1\n      pop\n        /* \"#utility.yul\":1045:1116   */\n      tag_92\n        /* \"#utility.yul\":1113:1114   */\n      0x00\n        /* \"#utility.yul\":1102:1111   */\n      dup4\n        /* \"#utility.yul\":1098:1115   */\n      add\n        /* \"#utility.yul\":1089:1095   */\n      dup5\n        /* \"#utility.yul\":1045:1116   */\n      tag_87\n      jump\t// in\n    tag_92:\n        /* \"#utility.yul\":901:1123   */\n      swap3\n      swap2\n      pop\n      pop\n      jump\t// out\n        /* \"#utility.yul\":1210:1515   */\n    tag_53:\n        /* \"#utility.yul\":1250:1253   */\n      0x00\n        /* \"#utility.yul\":1269:1289   */\n      tag_96\n        /* \"#utility.yul\":1287:1288   */\n      dup3\n        /* \"#utility.yul\":1269:1289   */\n      tag_90\n      jump\t// in\n    tag_96:\n        /* \"#utility.yul\":1264:1289   */\n      swap2\n      pop\n        /* \"#utility.yul\":1303:1323   */\n      tag_97\n        /* \"#utility.yul\":1321:1322   */\n      dup4\n        /* \"#utility.yul\":1303:1323   */\n      tag_90\n      jump\t// in\n    tag_97:\n        /* \"#utility.yul\":1298:1323   */\n      swap3\n      pop\n        /* \"#utility.yul\":1457:1458   */\n      dup3\n        /* \"#utility.yul\":1389:1455   */\n      0xffffffffffffffffffffffffffffffffffffffffffffffffffffffffffffffff\n        /* \"#utility.yul\":1385:1459   */\n      sub\n        /* \"#utility.yul\":1382:1383   */\n      dup3\n        /* \"#utility.yul\":1379:1460   */\n      gt\n        /* \"#utility.yul\":1376:1483   */\n      iszero\n      tag_98\n      jumpi\n        /* \"#utility.yul\":1463:1481   */\n      tag_99\n      tag_100\n      jump\t// in\n    tag_99:\n        /* \"#utility.yul\":1376:1483   */\n    tag_98:\n        /* \"#utility.yul\":1507:1508   */\n      dup3\n        /* \"#utility.yul\":1504:1505   */\n      dup3\n        /* \"#utility.yul\":1500:1509   */\n      add\n        /* \"#utility.yul\":1493:1509   */\n      swap1\n      pop\n        /* \"#utility.yul\":1210:1515   */\n      swap3\n      swap2\n      pop\n      pop\n      jump\t// out\n        /* \"#utility.yul\":1521:1706   */\n    tag_48:\n        /* \"#utility.yul\":1561:1562   */\n      0x00\n        /* \"#utility.yul\":1578:1598   */\n      tag_102\n        /* \"#utility.yul\":1596:1597   */\n      dup3\n        /* \"#utility.yul\":1578:1598   */\n      tag_90\n      jump\t// in\n    tag_102:\n        /* \"#utility.yul\":1573:1598   */\n      swap2\n      pop\n        /* \"#utility.yul\":1612:1632   */\n      tag_103\n        /* \"#utility.yul\":1630:1631   */\n      dup4\n        /* \"#utility.yul\":1612:1632   */\n      tag_90\n      jump\t// in\n    tag_103:\n        /* \"#utility.yul\":1607:1632   */\n      swap3\n      pop\n        /* \"#utility.yul\":1651:1652   */\n      dup3\n        /* \"#utility.yul\":1641:1676   */\n      tag_104\n      jumpi\n        /* \"#utility.yul\":1656:1674   */\n      tag_105\n      tag_106\n      jump\t// in\n    tag_105:\n        /* \"#utility.yul\":1641:1676   */\n    tag_104:\n        /* \"#utility.yul\":1698:1699   */\n      dup3\n        /* \"#utility.yul\":1695:1696   */\n      dup3\n        /* \"#utility.yul\":1691:1700   */\n      div\n        /* \"#utility.yul\":1686:1700   */\n      swap1\n      pop\n        /* \"#utility.yul\":1521:1706   */\n      swap3\n      swap2\n      pop\n      pop\n      jump\t// out\n        /* \"#utility.yul\":1712:2060   */\n    tag_50:\n        /* \"#utility.yul\":1752:1759   */\n      0x00\n        /* \"#utility.yul\":1775:1795   */\n      tag_108\n        /* \"#utility.yul\":1793:1794   */\n      dup3\n        /* \"#utility.yul\":1775:1795   */\n      tag_90\n      jump\t// in\n    tag_108:\n        /* \"#utility.yul\":1770:1795   */\n      swap2\n      pop\n        /* \"#utility.yul\":1809:1829   */\n      tag_109\n        /* \"#utility.yul\":1827:1828   */\n      dup4\n        /* \"#utility.yul\":1809:1829   */\n      tag_90\n      jump\t// in\n    tag_109:\n        /* \"#utility.yul\":1804:1829   */\n      swap3\n      pop\n        /* \"#utility.yul\":1997:1998   */\n      dup2\n        /* \"#utility.yul\":1929:1995   */\n      0xffffffffffffffffffffffffffffffffffffffffffffffffffffffffffffffff\n        /* \"#utility.yul\":1925:1999   */\n      div\n        /* \"#utility.yul\":1922:1923   */\n      dup4\n        /* \"#utility.yul\":1919:2000   */\n      gt\n        /* \"#utility.yul\":1914:1915   */\n      dup3\n        /* \"#utility.yul\":1907:1916   */\n      iszero\n        /* \"#utility.yul\":1900:1917   */\n      iszero\n        /* \"#utility.yul\":1896:2001   */\n      and\n        /* \"#utility.yul\":1893:2024   */\n      iszero\n      tag_110\n      jumpi\n        /* \"#utility.yul\":2004:2022   */\n      tag_111\n      tag_100\n      jump\t// in\n    tag_111:\n        /* \"#utility.yul\":1893:2024   */\n    tag_110:\n        /* \"#utility.yul\":2052:2053   */\n      dup3\n        /* \"#utility.yul\":2049:2050   */\n      dup3\n        /* \"#utility.yul\":2045:2054   */\n      mul\n        /* \"#utility.yul\":2034:2054   */\n      swap1\n      pop\n        /* \"#utility.yul\":1712:2060   */\n      swap3\n      swap2\n      pop\n      pop\n      jump\t// out\n        /* \"#utility.yul\":2066:2143   */\n    tag_90:\n        /* \"#utility.yul\":2103:2110   */\n      0x00\n        /* \"#utility.yul\":2132:2137   */\n      dup2\n        /* \"#utility.yul\":2121:2137   */\n      swap1\n      pop\n        /* \"#utility.yul\":2066:2143   */\n      swap2\n      swap1\n      pop\n      jump\t// out\n        /* \"#utility.yul\":2149:2329   */\n    tag_100:\n        /* \"#utility.yul\":2197:2274   */\n      0x4e487b7100000000000000000000000000000000000000000000000000000000\n        /* \"#utility.yul\":2194:2195   */\n      0x00\n        /* \"#utility.yul\":2187:2275   */\n      mstore\n        /* \"#utility.yul\":2294:2298   */\n      0x11\n        /* \"#utility.yul\":2291:2292   */\n      0x04\n        /* \"#utility.yul\":2284:2299   */\n      mstore\n        /* \"#utility.yul\":2318:2322   */\n      0x24\n        /* \"#utility.yul\":2315:2316   */\n      0x00\n        /* \"#utility.yul\":2308:2323   */\n      revert\n        /* \"#utility.yul\":2335:2515   */\n    tag_106:\n        /* \"#utility.yul\":2383:2460   */\n      0x4e487b7100000000000000000000000000000000000000000000000000000000\n        /* \"#utility.yul\":2380:2381   */\n      0x00\n        /* \"#utility.yul\":2373:2461   */\n      mstore\n        /* \"#utility.yul\":2480:2484   */\n      0x12\n        /* \"#utility.yul\":2477:2478   */\n      0x04\n        /* \"#utility.yul\":2470:2485   */\n      mstore\n        /* \"#utility.yul\":2504:2508   */\n      0x24\n        /* \"#utility.yul\":2501:2502   */\n      0x00\n        /* \"#utility.yul\":2494:2509   */\n      revert\n        /* \"#utility.yul\":2644:2761   */\n    tag_83:\n        /* \"#utility.yul\":2753:2754   */\n      0x00\n        /* \"#utility.yul\":2750:2751   */\n      dup1\n        /* \"#utility.yul\":2743:2755   */\n      revert\n        /* \"#utility.yul\":2767:2889   */\n    tag_79:\n        /* \"#utility.yul\":2840:2864   */\n      tag_119\n        /* \"#utility.yul\":2858:2863   */\n      dup2\n        /* \"#utility.yul\":2840:2864   */\n      tag_90\n      jump\t// in\n    tag_119:\n        /* \"#utility.yul\":2833:2838   */\n      dup2\n        /* \"#utility.yul\":2830:2865   */\n      eq\n        /* \"#utility.yul\":2820:2883   */\n      tag_120\n      jumpi\n        /* \"#utility.yul\":2879:2880   */\n      0x00\n        /* \"#utility.yul\":2876:2877   */\n      dup1\n        /* \"#utility.yul\":2869:2881   */\n      revert\n        /* \"#utility.yul\":2820:2883   */\n    tag_120:\n        /* \"#utility.yul\":2767:2889   */\n      pop\n      jump\t// out\n\n    auxdata: 0xa2646970667358221220ff6fc6362172d8049c17fb70b4e6ee3b2bb135878fd92ee6882c4017276a7c4f64736f6c63430008070033\n}\n",
				"bytecode": {
					"linkReferences": {},
					"object": "608060405273ab8483f64d9c6d1ecf9b849ae677dd3315835cb2600160006101000a81548173ffffffffffffffffffffffffffffffffffffffff021916908373ffffffffffffffffffffffffffffffffffffffff160217905550734b20993bc481177ec7e8f571cecae8a9e22c02db600260006101000a81548173ffffffffffffffffffffffffffffffffffffffff021916908373ffffffffffffffffffffffffffffffffffffffff1602179055507378731d3ca6b7e34ac0f824c42a7cc18a495cabab600360006101000a81548173ffffffffffffffffffffffffffffffffffffffff021916908373ffffffffffffffffffffffffffffffffffffffff16021790555073617f2e2fd72fd9d5503197092ac168c91465e7f2600460006101000a81548173ffffffffffffffffffffffffffffffffffffffff021916908373ffffffffffffffffffffffffffffffffffffffff1602179055506106bf806101676000396000f3fe6080604052600436106100865760003560e01c8063bbdf67ad11610059578063bbdf67ad14610149578063bfc49eb614610174578063cfd692a61461017e578063efb87560146101a9578063f7474d00146101c057610086565b8063127d79201461008b5780638cb97317146100b657806393af640a146100f357806396ff521e1461011e575b600080fd5b34801561009757600080fd5b506100a06101ca565b6040516100ad9190610509565b60405180910390f35b3480156100c257600080fd5b506100dd60048036038101906100d891906104a7565b6101d0565b6040516100ea9190610509565b60405180910390f35b3480156100ff57600080fd5b5061010861021f565b6040516101159190610509565b60405180910390f35b34801561012a57600080fd5b50610133610225565b6040516101409190610509565b60405180910390f35b34801561015557600080fd5b5061015e61022b565b60405161016b9190610509565b60405180910390f35b61017c610231565b005b34801561018a57600080fd5b5061019361042b565b6040516101a09190610509565b60405180910390f35b3480156101b557600080fd5b506101be610431565b005b6101c8610490565b005b60085481565b60006002826101df919061057a565b6005846101ec91906105ab565b600a866101f991906105ab565b6102039190610524565b61020d9190610524565b60058190555060055490509392505050565b60075481565b60095481565b60065481565b600160009054906101000a900473ffffffffffffffffffffffffffffffffffffffff1673ffffffffffffffffffffffffffffffffffffffff166108fc670de0b6b3a764000060065461028391906105ab565b9081150290604051600060405180830381858888f193505050501580156102ae573d6000803e3d6000fd5b50600260009054906101000a900473ffffffffffffffffffffffffffffffffffffffff1673ffffffffffffffffffffffffffffffffffffffff166108fc670de0b6b3a764000060075461030191906105ab565b9081150290604051600060405180830381858888f1935050505015801561032c573d6000803e3d6000fd5b50600360009054906101000a900473ffffffffffffffffffffffffffffffffffffffff1673ffffffffffffffffffffffffffffffffffffffff166108fc670de0b6b3a764000060085461037f91906105ab565b9081150290604051600060405180830381858888f193505050501580156103aa573d6000803e3d6000fd5b50600460009054906101000a900473ffffffffffffffffffffffffffffffffffffffff1673ffffffffffffffffffffffffffffffffffffffff166108fc670de0b6b3a76400006009546103fd91906105ab565b9081150290604051600060405180830381858888f19350505050158015610428573d6000803e3d6000fd5b50565b60055481565b6005805461043f919061057a565b60068190555060058054610453919061057a565b60078190555060058054610467919061057a565b6009819055506005600260055461047e91906105ab565b610488919061057a565b600881905550565b565b6000813590506104a181610672565b92915050565b6000806000606084860312156104c0576104bf61066d565b5b60006104ce86828701610492565b93505060206104df86828701610492565b92505060406104f086828701610492565b9150509250925092565b61050381610605565b82525050565b600060208201905061051e60008301846104fa565b92915050565b600061052f82610605565b915061053a83610605565b9250827fffffffffffffffffffffffffffffffffffffffffffffffffffffffffffffffff0382111561056f5761056e61060f565b5b828201905092915050565b600061058582610605565b915061059083610605565b9250826105a05761059f61063e565b5b828204905092915050565b60006105b682610605565b91506105c183610605565b9250817fffffffffffffffffffffffffffffffffffffffffffffffffffffffffffffffff04831182151516156105fa576105f961060f565b5b828202905092915050565b6000819050919050565b7f4e487b7100000000000000000000000000000000000000000000000000000000600052601160045260246000fd5b7f4e487b7100000000000000000000000000000000000000000000000000000000600052601260045260246000fd5b600080fd5b61067b81610605565b811461068657600080fd5b5056fea2646970667358221220ff6fc6362172d8049c17fb70b4e6ee3b2bb135878fd92ee6882c4017276a7c4f64736f6c63430008070033",
					"opcodes": "PUSH1 0x80 PUSH1 0x40 MSTORE PUSH20 0xAB8483F64D9C6D1ECF9B849AE677DD3315835CB2 PUSH1 0x1 PUSH1 0x0 PUSH2 0x100 EXP DUP2 SLOAD DUP2 PUSH20 0xFFFFFFFFFFFFFFFFFFFFFFFFFFFFFFFFFFFFFFFF MUL NOT AND SWAP1 DUP4 PUSH20 0xFFFFFFFFFFFFFFFFFFFFFFFFFFFFFFFFFFFFFFFF AND MUL OR SWAP1 SSTORE POP PUSH20 0x4B20993BC481177EC7E8F571CECAE8A9E22C02DB PUSH1 0x2 PUSH1 0x0 PUSH2 0x100 EXP DUP2 SLOAD DUP2 PUSH20 0xFFFFFFFFFFFFFFFFFFFFFFFFFFFFFFFFFFFFFFFF MUL NOT AND SWAP1 DUP4 PUSH20 0xFFFFFFFFFFFFFFFFFFFFFFFFFFFFFFFFFFFFFFFF AND MUL OR SWAP1 SSTORE POP PUSH20 0x78731D3CA6B7E34AC0F824C42A7CC18A495CABAB PUSH1 0x3 PUSH1 0x0 PUSH2 0x100 EXP DUP2 SLOAD DUP2 PUSH20 0xFFFFFFFFFFFFFFFFFFFFFFFFFFFFFFFFFFFFFFFF MUL NOT AND SWAP1 DUP4 PUSH20 0xFFFFFFFFFFFFFFFFFFFFFFFFFFFFFFFFFFFFFFFF AND MUL OR SWAP1 SSTORE POP PUSH20 0x617F2E2FD72FD9D5503197092AC168C91465E7F2 PUSH1 0x4 PUSH1 0x0 PUSH2 0x100 EXP DUP2 SLOAD DUP2 PUSH20 0xFFFFFFFFFFFFFFFFFFFFFFFFFFFFFFFFFFFFFFFF MUL NOT AND SWAP1 DUP4 PUSH20 0xFFFFFFFFFFFFFFFFFFFFFFFFFFFFFFFFFFFFFFFF AND MUL OR SWAP1 SSTORE POP PUSH2 0x6BF DUP1 PUSH2 0x167 PUSH1 0x0 CODECOPY PUSH1 0x0 RETURN INVALID PUSH1 0x80 PUSH1 0x40 MSTORE PUSH1 0x4 CALLDATASIZE LT PUSH2 0x86 JUMPI PUSH1 0x0 CALLDATALOAD PUSH1 0xE0 SHR DUP1 PUSH4 0xBBDF67AD GT PUSH2 0x59 JUMPI DUP1 PUSH4 0xBBDF67AD EQ PUSH2 0x149 JUMPI DUP1 PUSH4 0xBFC49EB6 EQ PUSH2 0x174 JUMPI DUP1 PUSH4 0xCFD692A6 EQ PUSH2 0x17E JUMPI DUP1 PUSH4 0xEFB87560 EQ PUSH2 0x1A9 JUMPI DUP1 PUSH4 0xF7474D00 EQ PUSH2 0x1C0 JUMPI PUSH2 0x86 JUMP JUMPDEST DUP1 PUSH4 0x127D7920 EQ PUSH2 0x8B JUMPI DUP1 PUSH4 0x8CB97317 EQ PUSH2 0xB6 JUMPI DUP1 PUSH4 0x93AF640A EQ PUSH2 0xF3 JUMPI DUP1 PUSH4 0x96FF521E EQ PUSH2 0x11E JUMPI JUMPDEST PUSH1 0x0 DUP1 REVERT JUMPDEST CALLVALUE DUP1 ISZERO PUSH2 0x97 JUMPI PUSH1 0x0 DUP1 REVERT JUMPDEST POP PUSH2 0xA0 PUSH2 0x1CA JUMP JUMPDEST PUSH1 0x40 MLOAD PUSH2 0xAD SWAP2 SWAP1 PUSH2 0x509 JUMP JUMPDEST PUSH1 0x40 MLOAD DUP1 SWAP2 SUB SWAP1 RETURN JUMPDEST CALLVALUE DUP1 ISZERO PUSH2 0xC2 JUMPI PUSH1 0x0 DUP1 REVERT JUMPDEST POP PUSH2 0xDD PUSH1 0x4 DUP1 CALLDATASIZE SUB DUP2 ADD SWAP1 PUSH2 0xD8 SWAP2 SWAP1 PUSH2 0x4A7 JUMP JUMPDEST PUSH2 0x1D0 JUMP JUMPDEST PUSH1 0x40 MLOAD PUSH2 0xEA SWAP2 SWAP1 PUSH2 0x509 JUMP JUMPDEST PUSH1 0x40 MLOAD DUP1 SWAP2 SUB SWAP1 RETURN JUMPDEST CALLVALUE DUP1 ISZERO PUSH2 0xFF JUMPI PUSH1 0x0 DUP1 REVERT JUMPDEST POP PUSH2 0x108 PUSH2 0x21F JUMP JUMPDEST PUSH1 0x40 MLOAD PUSH2 0x115 SWAP2 SWAP1 PUSH2 0x509 JUMP JUMPDEST PUSH1 0x40 MLOAD DUP1 SWAP2 SUB SWAP1 RETURN JUMPDEST CALLVALUE DUP1 ISZERO PUSH2 0x12A JUMPI PUSH1 0x0 DUP1 REVERT JUMPDEST POP PUSH2 0x133 PUSH2 0x225 JUMP JUMPDEST PUSH1 0x40 MLOAD PUSH2 0x140 SWAP2 SWAP1 PUSH2 0x509 JUMP JUMPDEST PUSH1 0x40 MLOAD DUP1 SWAP2 SUB SWAP1 RETURN JUMPDEST CALLVALUE DUP1 ISZERO PUSH2 0x155 JUMPI PUSH1 0x0 DUP1 REVERT JUMPDEST POP PUSH2 0x15E PUSH2 0x22B JUMP JUMPDEST PUSH1 0x40 MLOAD PUSH2 0x16B SWAP2 SWAP1 PUSH2 0x509 JUMP JUMPDEST PUSH1 0x40 MLOAD DUP1 SWAP2 SUB SWAP1 RETURN JUMPDEST PUSH2 0x17C PUSH2 0x231 JUMP JUMPDEST STOP JUMPDEST CALLVALUE DUP1 ISZERO PUSH2 0x18A JUMPI PUSH1 0x0 DUP1 REVERT JUMPDEST POP PUSH2 0x193 PUSH2 0x42B JUMP JUMPDEST PUSH1 0x40 MLOAD PUSH2 0x1A0 SWAP2 SWAP1 PUSH2 0x509 JUMP JUMPDEST PUSH1 0x40 MLOAD DUP1 SWAP2 SUB SWAP1 RETURN JUMPDEST CALLVALUE DUP1 ISZERO PUSH2 0x1B5 JUMPI PUSH1 0x0 DUP1 REVERT JUMPDEST POP PUSH2 0x1BE PUSH2 0x431 JUMP JUMPDEST STOP JUMPDEST PUSH2 0x1C8 PUSH2 0x490 JUMP JUMPDEST STOP JUMPDEST PUSH1 0x8 SLOAD DUP2 JUMP JUMPDEST PUSH1 0x0 PUSH1 0x2 DUP3 PUSH2 0x1DF SWAP2 SWAP1 PUSH2 0x57A JUMP JUMPDEST PUSH1 0x5 DUP5 PUSH2 0x1EC SWAP2 SWAP1 PUSH2 0x5AB JUMP JUMPDEST PUSH1 0xA DUP7 PUSH2 0x1F9 SWAP2 SWAP1 PUSH2 0x5AB JUMP JUMPDEST PUSH2 0x203 SWAP2 SWAP1 PUSH2 0x524 JUMP JUMPDEST PUSH2 0x20D SWAP2 SWAP1 PUSH2 0x524 JUMP JUMPDEST PUSH1 0x5 DUP2 SWAP1 SSTORE POP PUSH1 0x5 SLOAD SWAP1 POP SWAP4 SWAP3 POP POP POP JUMP JUMPDEST PUSH1 0x7 SLOAD DUP2 JUMP JUMPDEST PUSH1 0x9 SLOAD DUP2 JUMP JUMPDEST PUSH1 0x6 SLOAD DUP2 JUMP JUMPDEST PUSH1 0x1 PUSH1 0x0 SWAP1 SLOAD SWAP1 PUSH2 0x100 EXP SWAP1 DIV PUSH20 0xFFFFFFFFFFFFFFFFFFFFFFFFFFFFFFFFFFFFFFFF AND PUSH20 0xFFFFFFFFFFFFFFFFFFFFFFFFFFFFFFFFFFFFFFFF AND PUSH2 0x8FC PUSH8 0xDE0B6B3A7640000 PUSH1 0x6 SLOAD PUSH2 0x283 SWAP2 SWAP1 PUSH2 0x5AB JUMP JUMPDEST SWAP1 DUP2 ISZERO MUL SWAP1 PUSH1 0x40 MLOAD PUSH1 0x0 PUSH1 0x40 MLOAD DUP1 DUP4 SUB DUP2 DUP6 DUP9 DUP9 CALL SWAP4 POP POP POP POP ISZERO DUP1 ISZERO PUSH2 0x2AE JUMPI RETURNDATASIZE PUSH1 0x0 DUP1 RETURNDATACOPY RETURNDATASIZE PUSH1 0x0 REVERT JUMPDEST POP PUSH1 0x2 PUSH1 0x0 SWAP1 SLOAD SWAP1 PUSH2 0x100 EXP SWAP1 DIV PUSH20 0xFFFFFFFFFFFFFFFFFFFFFFFFFFFFFFFFFFFFFFFF AND PUSH20 0xFFFFFFFFFFFFFFFFFFFFFFFFFFFFFFFFFFFFFFFF AND PUSH2 0x8FC PUSH8 0xDE0B6B3A7640000 PUSH1 0x7 SLOAD PUSH2 0x301 SWAP2 SWAP1 PUSH2 0x5AB JUMP JUMPDEST SWAP1 DUP2 ISZERO MUL SWAP1 PUSH1 0x40 MLOAD PUSH1 0x0 PUSH1 0x40 MLOAD DUP1 DUP4 SUB DUP2 DUP6 DUP9 DUP9 CALL SWAP4 POP POP POP POP ISZERO DUP1 ISZERO PUSH2 0x32C JUMPI RETURNDATASIZE PUSH1 0x0 DUP1 RETURNDATACOPY RETURNDATASIZE PUSH1 0x0 REVERT JUMPDEST POP PUSH1 0x3 PUSH1 0x0 SWAP1 SLOAD SWAP1 PUSH2 0x100 EXP SWAP1 DIV PUSH20 0xFFFFFFFFFFFFFFFFFFFFFFFFFFFFFFFFFFFFFFFF AND PUSH20 0xFFFFFFFFFFFFFFFFFFFFFFFFFFFFFFFFFFFFFFFF AND PUSH2 0x8FC PUSH8 0xDE0B6B3A7640000 PUSH1 0x8 SLOAD PUSH2 0x37F SWAP2 SWAP1 PUSH2 0x5AB JUMP JUMPDEST SWAP1 DUP2 ISZERO MUL SWAP1 PUSH1 0x40 MLOAD PUSH1 0x0 PUSH1 0x40 MLOAD DUP1 DUP4 SUB DUP2 DUP6 DUP9 DUP9 CALL SWAP4 POP POP POP POP ISZERO DUP1 ISZERO PUSH2 0x3AA JUMPI RETURNDATASIZE PUSH1 0x0 DUP1 RETURNDATACOPY RETURNDATASIZE PUSH1 0x0 REVERT JUMPDEST POP PUSH1 0x4 PUSH1 0x0 SWAP1 SLOAD SWAP1 PUSH2 0x100 EXP SWAP1 DIV PUSH20 0xFFFFFFFFFFFFFFFFFFFFFFFFFFFFFFFFFFFFFFFF AND PUSH20 0xFFFFFFFFFFFFFFFFFFFFFFFFFFFFFFFFFFFFFFFF AND PUSH2 0x8FC PUSH8 0xDE0B6B3A7640000 PUSH1 0x9 SLOAD PUSH2 0x3FD SWAP2 SWAP1 PUSH2 0x5AB JUMP JUMPDEST SWAP1 DUP2 ISZERO MUL SWAP1 PUSH1 0x40 MLOAD PUSH1 0x0 PUSH1 0x40 MLOAD DUP1 DUP4 SUB DUP2 DUP6 DUP9 DUP9 CALL SWAP4 POP POP POP POP ISZERO DUP1 ISZERO PUSH2 0x428 JUMPI RETURNDATASIZE PUSH1 0x0 DUP1 RETURNDATACOPY RETURNDATASIZE PUSH1 0x0 REVERT JUMPDEST POP JUMP JUMPDEST PUSH1 0x5 SLOAD DUP2 JUMP JUMPDEST PUSH1 0x5 DUP1 SLOAD PUSH2 0x43F SWAP2 SWAP1 PUSH2 0x57A JUMP JUMPDEST PUSH1 0x6 DUP2 SWAP1 SSTORE POP PUSH1 0x5 DUP1 SLOAD PUSH2 0x453 SWAP2 SWAP1 PUSH2 0x57A JUMP JUMPDEST PUSH1 0x7 DUP2 SWAP1 SSTORE POP PUSH1 0x5 DUP1 SLOAD PUSH2 0x467 SWAP2 SWAP1 PUSH2 0x57A JUMP JUMPDEST PUSH1 0x9 DUP2 SWAP1 SSTORE POP PUSH1 0x5 PUSH1 0x2 PUSH1 0x5 SLOAD PUSH2 0x47E SWAP2 SWAP1 PUSH2 0x5AB JUMP JUMPDEST PUSH2 0x488 SWAP2 SWAP1 PUSH2 0x57A JUMP JUMPDEST PUSH1 0x8 DUP2 SWAP1 SSTORE POP JUMP JUMPDEST JUMP JUMPDEST PUSH1 0x0 DUP2 CALLDATALOAD SWAP1 POP PUSH2 0x4A1 DUP2 PUSH2 0x672 JUMP JUMPDEST SWAP3 SWAP2 POP POP JUMP JUMPDEST PUSH1 0x0 DUP1 PUSH1 0x0 PUSH1 0x60 DUP5 DUP7 SUB SLT ISZERO PUSH2 0x4C0 JUMPI PUSH2 0x4BF PUSH2 0x66D JUMP JUMPDEST JUMPDEST PUSH1 0x0 PUSH2 0x4CE DUP7 DUP3 DUP8 ADD PUSH2 0x492 JUMP JUMPDEST SWAP4 POP POP PUSH1 0x20 PUSH2 0x4DF DUP7 DUP3 DUP8 ADD PUSH2 0x492 JUMP JUMPDEST SWAP3 POP POP PUSH1 0x40 PUSH2 0x4F0 DUP7 DUP3 DUP8 ADD PUSH2 0x492 JUMP JUMPDEST SWAP2 POP POP SWAP3 POP SWAP3 POP SWAP3 JUMP JUMPDEST PUSH2 0x503 DUP2 PUSH2 0x605 JUMP JUMPDEST DUP3 MSTORE POP POP JUMP JUMPDEST PUSH1 0x0 PUSH1 0x20 DUP3 ADD SWAP1 POP PUSH2 0x51E PUSH1 0x0 DUP4 ADD DUP5 PUSH2 0x4FA JUMP JUMPDEST SWAP3 SWAP2 POP POP JUMP JUMPDEST PUSH1 0x0 PUSH2 0x52F DUP3 PUSH2 0x605 JUMP JUMPDEST SWAP2 POP PUSH2 0x53A DUP4 PUSH2 0x605 JUMP JUMPDEST SWAP3 POP DUP3 PUSH32 0xFFFFFFFFFFFFFFFFFFFFFFFFFFFFFFFFFFFFFFFFFFFFFFFFFFFFFFFFFFFFFFFF SUB DUP3 GT ISZERO PUSH2 0x56F JUMPI PUSH2 0x56E PUSH2 0x60F JUMP JUMPDEST JUMPDEST DUP3 DUP3 ADD SWAP1 POP SWAP3 SWAP2 POP POP JUMP JUMPDEST PUSH1 0x0 PUSH2 0x585 DUP3 PUSH2 0x605 JUMP JUMPDEST SWAP2 POP PUSH2 0x590 DUP4 PUSH2 0x605 JUMP JUMPDEST SWAP3 POP DUP3 PUSH2 0x5A0 JUMPI PUSH2 0x59F PUSH2 0x63E JUMP JUMPDEST JUMPDEST DUP3 DUP3 DIV SWAP1 POP SWAP3 SWAP2 POP POP JUMP JUMPDEST PUSH1 0x0 PUSH2 0x5B6 DUP3 PUSH2 0x605 JUMP JUMPDEST SWAP2 POP PUSH2 0x5C1 DUP4 PUSH2 0x605 JUMP JUMPDEST SWAP3 POP DUP2 PUSH32 0xFFFFFFFFFFFFFFFFFFFFFFFFFFFFFFFFFFFFFFFFFFFFFFFFFFFFFFFFFFFFFFFF DIV DUP4 GT DUP3 ISZERO ISZERO AND ISZERO PUSH2 0x5FA JUMPI PUSH2 0x5F9 PUSH2 0x60F JUMP JUMPDEST JUMPDEST DUP3 DUP3 MUL SWAP1 POP SWAP3 SWAP2 POP POP JUMP JUMPDEST PUSH1 0x0 DUP2 SWAP1 POP SWAP2 SWAP1 POP JUMP JUMPDEST PUSH32 0x4E487B7100000000000000000000000000000000000000000000000000000000 PUSH1 0x0 MSTORE PUSH1 0x11 PUSH1 0x4 MSTORE PUSH1 0x24 PUSH1 0x0 REVERT JUMPDEST PUSH32 0x4E487B7100000000000000000000000000000000000000000000000000000000 PUSH1 0x0 MSTORE PUSH1 0x12 PUSH1 0x4 MSTORE PUSH1 0x24 PUSH1 0x0 REVERT JUMPDEST PUSH1 0x0 DUP1 REVERT JUMPDEST PUSH2 0x67B DUP2 PUSH2 0x605 JUMP JUMPDEST DUP2 EQ PUSH2 0x686 JUMPI PUSH1 0x0 DUP1 REVERT JUMPDEST POP JUMP INVALID LOG2 PUSH5 0x6970667358 0x22 SLT KECCAK256 SELFDESTRUCT PUSH16 0xC6362172D8049C17FB70B4E6EE3B2BB1 CALLDATALOAD DUP8 DUP16 0xD9 0x2E 0xE6 DUP9 0x2C BLOCKHASH OR 0x27 PUSH11 0x7C4F64736F6C6343000807 STOP CALLER "
				},
				"gasEstimates": {
					"creation": {
						"codeDepositCost": "345400",
						"executionCost": "97424",
						"totalCost": "442824"
					},
					"external": {
						"composer_share()": "2429",
						"income_distribute()": "infinite",
						"payEther()": "208",
						"profit(uint256,uint256,uint256)": "infinite",
						"send_income()": "infinite",
						"singer_share()": "2430",
						"total_profit()": "2473",
						"video_editor_share()": "2496",
						"writer_share()": "2474"
					}
				},
				"methodIdentifiers": {
					"composer_share()": "bbdf67ad",
					"income_distribute()": "efb87560",
					"payEther()": "f7474d00",
					"profit(uint256,uint256,uint256)": "8cb97317",
					"send_income()": "bfc49eb6",
					"singer_share()": "127d7920",
					"total_profit()": "cfd692a6",
					"video_editor_share()": "96ff521e",
					"writer_share()": "93af640a"
				}
			},
			"storageLayout": {
				"storage": [
					{
						"astId": 3,
						"contract": "contracts/RoyaltySharing.sol:Profit_sharing",
						"label": "manager",
						"offset": 0,
						"slot": "0",
						"type": "t_address"
					},
					{
						"astId": 9,
						"contract": "contracts/RoyaltySharing.sol:Profit_sharing",
						"label": "composer",
						"offset": 0,
						"slot": "1",
						"type": "t_address_payable"
					},
					{
						"astId": 15,
						"contract": "contracts/RoyaltySharing.sol:Profit_sharing",
						"label": "writer",
						"offset": 0,
						"slot": "2",
						"type": "t_address_payable"
					},
					{
						"astId": 21,
						"contract": "contracts/RoyaltySharing.sol:Profit_sharing",
						"label": "singer",
						"offset": 0,
						"slot": "3",
						"type": "t_address_payable"
					},
					{
						"astId": 27,
						"contract": "contracts/RoyaltySharing.sol:Profit_sharing",
						"label": "video_editor",
						"offset": 0,
						"slot": "4",
						"type": "t_address_payable"
					},
					{
						"astId": 29,
						"contract": "contracts/RoyaltySharing.sol:Profit_sharing",
						"label": "total_profit",
						"offset": 0,
						"slot": "5",
						"type": "t_uint256"
					},
					{
						"astId": 31,
						"contract": "contracts/RoyaltySharing.sol:Profit_sharing",
						"label": "composer_share",
						"offset": 0,
						"slot": "6",
						"type": "t_uint256"
					},
					{
						"astId": 33,
						"contract": "contracts/RoyaltySharing.sol:Profit_sharing",
						"label": "writer_share",
						"offset": 0,
						"slot": "7",
						"type": "t_uint256"
					},
					{
						"astId": 35,
						"contract": "contracts/RoyaltySharing.sol:Profit_sharing",
						"label": "singer_share",
						"offset": 0,
						"slot": "8",
						"type": "t_uint256"
					},
					{
						"astId": 37,
						"contract": "contracts/RoyaltySharing.sol:Profit_sharing",
						"label": "video_editor_share",
						"offset": 0,
						"slot": "9",
						"type": "t_uint256"
					}
				],
				"types": {
					"t_address": {
						"encoding": "inplace",
						"label": "address",
						"numberOfBytes": "20"
					},
					"t_address_payable": {
						"encoding": "inplace",
						"label": "address payable",
						"numberOfBytes": "20"
					},
					"t_uint256": {
						"encoding": "inplace",
						"label": "uint256",
						"numberOfBytes": "32"
					}
				}
			},
			"userdoc": {
				"kind": "user",
				"methods": {},
				"version": 1
			}
		}
	}
}